:020000040800F2
:10000000006200205D020008C93B0008ED380008CE
:10001000C53B00084B1600084948000800000000D6
:100020000000000000000000000000009D0100082A
:100030009B17000800000000F9010008953F000828
:1000400077020008770200087702000877020008AC
:10005000770200087702000877020008770200089C
:10006000770200087702000877020008770200088C
:10007000770200087702000877020008770200087C
:100080005116000861160008770200087702000880
:10009000770200087702000877020008770200085C
:1000A00077020008E14000087702000877020008A4
:1000B000770200087702000877020008770200083C
:1000C000770200087702000877020008770200082C
:1000D000770200087702000877020008770200081C
:1000E000770200087702000877020008770200080C
:1000F00077020008770200087702000877020008FC
:1001000077020008770200087702000877020008EB
:1001100077020008770200087702000877020008DB
:1001200077020008711600087702000877020008BD
:1001300077020008000000000000000077020008BD
:1001400077020008770200087702000877020008AB
:100150007702000881160008770200083948000875
:10016000770200087702000877020008770200088B
:10017000770200087702000800000000000000007D
:100180007702000877020008DFF80CD000F00EFEBE
:100190000048004729830008006200202C4B1968A2
:1001A0000868B0E8F04F80F30988BFF36F8F4FF015
:1001B000000080F3118870470000000008480068C4
:1001C000006880F308884FF0000080F3148862B65E
:1001D00061B6BFF34F8FBFF36F8F00DF00BF00BF6B
:1001E00008ED00E0DFF80C00016841F470010160E7
:1001F000704700BF88ED00E0EFF30980BFF36F8F19
:10020000134B1A681EF0100F08BF20ED108A20E96A
:10021000F04F106009B44FF0500080F31188BFF325
:100220004F8FBFF36F8F0AF0DBFA4FF0000080F3BF
:10023000118809BC19680868B0E8F04F1EF0100F6B
:1002400008BFB0EC108A80F30988BFF36F8F704746
:10025000DC000020EFF3058070470000064880476F
:1002600006480047FEE7FEE7FEE7FEE7FEE7FEE79B
:10027000FEE7FEE7FEE7FEE77D4000088901000893
:1002800030B50B46014600202022012409E021FA66
:1002900002F59D4205D303FA02F5491B04FA02F563
:1002A0002844151EA2F10102F1DC30BD2DE9F05FFA
:1002B0000546002092469B468846064681464024D5
:1002C0001BE0284641464746224600F070FA534656
:1002D0005A46C01A914110D311461846224600F0E2
:1002E00057FA2D1A67EB01084F46224601200021DC
:1002F00000F04EFA17EB00094E41201EA4F1010454
:10030000DFDC484631462A464346BDE8F09F2DE9EA
:10031000FE43994615468846074601AC022942D35A
:10032000002D40D000200290A8F101004FF0FF36D0
:10033000009022E000FB057201FB057011464A4661
:100340009047002805DC54F82600304444F8260085
:1003500013E060682A4600FB057154F8040C00FBAA
:10036000057007E00B7890F800C001F801CB00F8A9
:10037000013B521E002AF5D1764254F8040C616804
:100380008842D7DC4B462A463846FFF7C0FF54F870
:10039000040C4B46A8EB0001401C00FB05702A46EC
:1003A000491EFFF7B4FFBDE8FE8310B5431A934220
:1003B00009D28318881803E010F8011D03F8011D05
:1003C000521EF9D210BD40EA01039B0703D009E099
:1003D00008C9121F08C0042AFAD203E011F8013B31
:1003E00000F8013B521EF9D210BDD2B201E000F874
:1003F000012B491EFBD270470022F6E710B51346C9
:100400000A4604461946FFF7F0FF204610BD30B5F6
:1004100005462A460B4612F8010B13F8014B08B1AA
:10042000A042F8D01CB1002802D06D1CF1E728468C
:1004300030BDCAB2401E10F8011F8A4202D0002906
:10044000F9D100207047421C10F8011B0029FBD194
:10045000801A704710B5002200E0521C835C8C5C4F
:10046000A34201D1002BF8D1D8B2E1B2401A10BD9D
:10047000CBB203E00178994203D0401C521EF9D25E
:100480000020704730B504460020034600E05B1CA6
:10049000934203D2E05CCD5C401BF8D030BD0346F4
:1004A00011F8012B00F8012B002AF9D118467047EA
:1004B00030B505460020034600E05B1C934205D2A0
:1004C000EC5CC85C201A01D1002CF6D130BD0000D4
:1004D0000FB400B58DB010A909900B9000914FF0AA
:1004E000FF300A9000200C900548069005480790C0
:1004F0006A4609A80F9900F07FF90DB05DF814FB6A
:1005000015080008330800082DE9FF5F1D464FF06D
:10051000FF3BD5E9014691465F464FF00008A969C7
:100520007F1C01988847296A824688470028F6D1AF
:10053000BAF1FF3F0CD024F4C064002E19DD600630
:1005400014D5BAF12B0F09D0BAF12D0F0ED103E05B
:10055000584604B0BDE8F09F44F48064A9697F1C4C
:1005600001988847761E8246002E02DDBAF1300FD0
:1005700003D0B9F1000F26D032E0A969761E44F409
:1005800000747F1C019888478246002E05DDBAF171
:10059000780F06D0BAF1580F03D0B9F1000F10D080
:1005A0001EE0B9F1000F02D0B9F1100F18D1A969FE
:1005B000761E24F400747F1C019888478246102020
:1005C00002E0082000E00A20814609E008FB090853
:1005D000A969761E44F400747F1C019888478246FE
:1005E000002E05DD4946504600F0F1F80028EDDA0E
:1005F000E96901988847A00502D46FF00100A8E7D7
:10060000E00725D1600613D5600502D5C8F10000CA
:1006100000E0404629680A1D2A600968220501D5C4
:10062000087015E0220701D5088011E008600FE08E
:100630002868011D29600068210502D580F8008026
:1006400006E0210702D5A0F8008001E0C0F8008094
:1006500038467EE72DE9FF5FD2E901A74FF0000899
:10066000916999461446DDF838B0464601988847A6
:10067000054659EA0B0005D009E0A169761C0198EE
:1006800088470546216A284688470028F5D1681C16
:1006900003D05FEACA7005D015E04FF0FF3004B018
:1006A000BDE8F09F2068011D2160D0F800800AE0BD
:1006B0005FEACA7001D108F8015BA169761C7F1E50
:1006C000019888470546002F1ADD681C18D0B9F13B
:1006D000000F0DD0E81705EBD060421120F01F008D
:1006E00059F822102A1A012090400142E0D107E077
:1006F000BBF1000FDCD1216A284688470028D7D0FB
:10070000E16901988847BBF1000F07D1002E05DD94
:100710005FEACA7002D1002188F80010A068B842D0
:1007200003DDBBF1000F03D017B16FF00100B6E796
:100730003046B4E700F0DCB83EB5CA17CB0F002452
:1007400050405140C0186141DA0740F233430094F1
:10075000CDE901232246234600F021F903B030BD44
:1007600030B5041E71F1000404DB4FF00044404238
:1007700064EB0101141E73F1000405DB1C464FF00D
:100780000043524263EB04038B4208BF824230BDF8
:10079000202A04DB203A00FA02F100207047914041
:1007A000C2F1200320FA03F3194390407047202A36
:1007B00004DB203A21FA02F00021704721FA02F30B
:1007C000D040C2F1200291400843194670473A28B0
:1007D00000D2303820F02002412A01D3A2F13700A4
:1007E000884201D34FF0FF30704700000268114487
:1007F0001378016018467047D1600449516104497B
:10080000116200211161114600F002BBED070008E2
:10081000FD0D0008426842B1016811F8013B23B1A7
:10082000521EC0E90012184670470121C160881E9F
:10083000704742685AB1C368016843B983688B4204
:1008400005D0491E521CC0E90012002070474FF02D
:10085000FF3070470FB4002300B589B00CA9009198
:100860000B996FF00042CB601E4B06931E4B079313
:100870000423CDE901321D4A089202466B4600204E
:1008800000F0DCFC09B05DF814FB70B586B00646DC
:100890004FF0FF300091CDE90101002015460C46D4
:1008A00004903246694604A8FFF7D4FF0346049833
:1008B000211825B108B10A4600E022462A60002826
:1008C0000DD0002B02DD0098884208D0081B009450
:1008D000CDE901043246694604A8FFF7BBFF06B024
:1008E00070BD00001508000833080008FD0D000861
:1008F0002DE9F04791460E4680460446002514F83F
:10090000017B2FB100F076FA0068C05DC007F6D118
:100910002B2F02D02D2F1ED0641E4A463146204672
:1009200000F0A8FD26B13268A24201D1C6F80080CD
:100930006A054FF0020418D50023D0EB030563EBE2
:1009400001025D1B934109DB0023D0EB030063EB45
:100950000101BDE8F08745F48065DEE704F0AEFBF9
:10096000046000204FF00041F3E7021E71F1000225
:10097000EFDA04F0A3FB04604FF0FF304108E8E732
:1009800010B5141E73F1000408DA401C41F1000197
:1009900092185B411A4301D120F0010010BD2DE9EE
:1009A000F04D92469B4611B1B1FA81F202E0B0FAE5
:1009B00080F220329046FFF7EBFE04460F4640EAF5
:1009C0000A0041EA0B0153465A46084313D0114628
:1009D00053EA010019D0C8F140025046FFF7E7FE84
:1009E00005460E46504659464246FFF7D1FE08439B
:1009F00005D0012004E020463946BDE8F08D0020F6
:100A0000054346EAE0762C4337430A986305E40A37
:100A1000A0EB08000022FD0A44EA47540A3002D540
:100A200000200146E9E7010510196941DDE90845A3
:100A300000196941BDE8F04DA2E72DE9FE4F80465F
:100A400081EA0300C00F0C46009021F0004123F022
:100A50000045B8EB0200A94105D240462146904628
:100A60001C460B46024623F00040104347D0270D9A
:100A7000C7F30A00C3F30A510290401A01904028BC
:100A80006BDAC3F3130040F4801B0098924620B148
:100A90000023D2EB030A63EB0B0B01985946C0F11C
:100AA00040025046FFF774FE06460D465046594632
:100AB000019A00F08DF910EB08006141002487EAEB
:100AC000115284EAE7731A4340D0009A62B3019A44
:100AD000012A4FEA075215DC001B61EB02014FF0BF
:100AE000004202EA0752CDE90042001C41F58011A4
:100AF00032462B46FFF753FF03B0BDE8F08F404668
:100B00002146F9E7001B61EB0201001C41F580134F
:100B100000185B412018A2F5001747EB030140EADB
:100B2000D570B6196D4111E06D084FEA360645EAF9
:100B3000C0754FEA0752001B61EB0201001C41F532
:100B4000801149084FEA30000019514132462B46C6
:100B500003B0BDE8F04FFFF713BF0098012240003B
:100B60000023D0EB020263EBE073009821464FEACA
:100B7000E074B8EB000061EB0401E9E783F00043A7
:100B80005BE781F0004158E72DE9FE4F81EA03045D
:100B900004F0004421F0004100944FF0000B23F0DA
:100BA000004350EA01045ED052EA03045BD0C3F371
:100BB0000A54C1F30A552C44A4F2F3340194A0FB67
:100BC0000254C1F3130141F48011C3F3130343F43E
:100BD000801301FB024400FB034E840A970A44EA97
:100BE000815447EA8357A4FB076802958D0A05FBE9
:100BF00007854FEA932C04FB0C542705029D4FEA0E
:100C0000065847EA1637B5EB08056EEB070C870E5A
:100C1000920E47EA811742EA8312A7FB0201B6EB64
:100C20000B0164EB00042B0D43EA0C335E1844EB1C
:100C30001C50DA465146E7FB0201C5F313044FEAA4
:100C40000B3343EA14534FEA0432019C43EA060390
:100C5000A4F10C040294009CCDE900B4FFF79FFEC0
:100C600003B0BDE8F08F00200146F9E72DE9F04D13
:100C700081EA030404F0004B21F0004514464FF0D4
:100C8000000A23F0004150EA050220D054EA010294
:100C90001DD0C5F30A570246C5F31303C1F3130071
:100CA000C1F30A5640F4801543F48013A7EB0608FD
:100CB000101BD64608F2FD3873EB050002D308F18D
:100CC000010801E092185B41B8F1000F03DA00203F
:100CD0000146BDE8F08D00204FF4801106468446A1
:100CE0000EE0171B73EB050705D3121B63EB05031F
:100CF00006434CEA010C49084FEA300092185B4168
:100D000050EA0107EDD152EA030012D082EA040052
:100D100083EA0501084305D0101BAB4106D201222E
:100D2000002306E000224FF0004302E06FF00102D2
:100D300053101AEB06004CEB085110EB0A0041EB84
:100D40000B01BDE8F04DFFF71BBEC1F30A52C1F322
:100D5000130140F2FF3341F480119A4202DA00207D
:100D60000146704740F233439A42A2F2334202DC1A
:100D70005242FFF71CBDFFF70BBD000030B5041E4B
:100D800071F1000404DB4FF00044404264EB0101C8
:100D9000141E73F1000405DB1C464FF00043524261
:100DA00063EB0403994208BF904230BD064C074DE7
:100DB00006E0E06840F0010394E80700984710342B
:100DC000AC42F6D3FFF7E4F924B6000844B60008B5
:100DD000202A06DBCB17203A41FA02F043EAE073FF
:100DE00006E041FA02F3D040C2F1200291400843EC
:100DF000194670470048704768B5000810B50446AA
:100E0000FFF7F8FF0068005D00F0010010BD000072
:100E10002DE9F34F8BB04FF0000801F10C000C46A8
:100E20004FF0010B46460DF1080A0190626901215D
:100E300001989047051E2DD0252D2CD0216A88477A
:100E4000C0B16269012101989047216A8847002852
:100E5000F7D1411E62690198904700E0761CA169B4
:100E60000B988847216A88470028F7D1E1690B98D9
:100E70008847DBE7A1690B9888470746A84201D15C
:100E8000761CD3E7E1690B9888477F1C02D1B8F143
:100E9000000F6FD046E1002762693D463946019850
:100EA00090472A2804D162690121019890470125C1
:100EB000DFF884926269012101989047A0F1300126
:100EC0000A290AD24F45E5DC07EB870100EB410711
:100ED000303FDFD445F01005ECE7E90601D46FF0B0
:100EE00000476C280AD04C2814D0682815D06A28EE
:100EF0000DD074281CD07A281AD01DE06269012117
:100F0000019890476C2802D045F0040514E045F0A4
:100F100002050DE045F020050AE062690121019813
:100F20009047682802D045F0080505E045F40065C3
:100F30006269012101989047C4E9015765283DD0B5
:100F400019DC58287AD00CDC452837D004DC252859
:100F500026D0412831D131E046282FD047282CD146
:100F60002CE05B2877D0612828D063287CD06428C7
:100F700023D15AE0D0E06F2848D008DC66281DD085
:100F800067281BD0692821D06E2816D127E0702849
:100F900045D0732868D0752847D078280DD14DE00A
:100FA000A1690B988847054625283FF469AFE16998
:100FB0000B9888476D1C3FF46AAFB3E023466A463E
:100FC0006FF001000B9900F039F99EE045F0400008
:100FD0006060A80723464FF0000236D43EE0E807E1
:100FE0007FF447AF2068011D21600068290501D505
:100FF00006701BE7290701D5068017E7A90703D567
:10100000F117C0E9006111E706600FE745F0400005
:101010006060A80723464FF0080216D41EE040F691
:101020000E0125EA0100606016E045F040006060B6
:10103000A80723464FF00A0207D40FE045F040000E
:101040006060A80708D5234610226FF001000B99B5
:10105000AFF3008059E007E0234610226FF0010053
:101060000B99FFF751FA50E04FF000094F464B46FD
:10107000632802D05B2806D040E0E80601D40120B6
:10108000A06001273AE062690121019890475E283B
:1010900005D14FF0010962694946019890472169DD
:1010A00039B900210A46534643F82120491C082932
:1010B000FADBB0B3216969B9C11700EBD1625311F2
:1010C0000AEB830122F01F02821A01200B68904074
:1010D00003430B6062690121019890475D28E8D1C4
:1010E000B9F1000F09D00020514651F82020D24319
:1010F00041F82020401C0828F7DB02AB224600976D
:101100006FF001000B99FFF7A5FA00280CDA401CDC
:1011100008D1BBF1000F05D04FF0FF300DB0BDE896
:10112000F08FFFE74046F9E7E90701D108F1010830
:1011300006444FF0000B79E6CCCCCC0C2DE9FF4FE8
:10114000087881B09946FF2805D0491C2D2804D085
:101150000024002308E000230BE00124F9E703EB5F
:10116000830300EB4303491C0878FF28F7D104B13F
:101170005B4200200090147801462D2C01D02B2CCE
:1011800004D1521C2D2C12D0002400940025167876
:10119000FF2E0ED00A24A0FB04C801FB0481002707
:1011A00000FB0711521C16EB0C006941EFE701240C
:1011B000EBE7994450EA01020ED00024AA4D2646DE
:1011C000DFF8A88200F0B7F982468B46B9F100003B
:1011D00009DAC9F100071BE001980021C0E90011FC
:1011E00005B0BDE8F08F074612E0F80707D02246A9
:1011F0002B4630464146FFF7C7FC06468846224646
:101200002B4610461946FFF7BFFC04460D467F10DB
:10121000002FEAD1B9F1000F3246434650465946F5
:1012200002DAFFF723FD01E0FFF7AEFC009A0AB1F6
:1012300081F00041019AC2E90001D1E72DE9FF4F99
:101240001F468DB0D7E901464FF0FF382E204546A6
:101250004FF000090B90B9696D1C0E988847396AE8
:10126000824688470028F6D1BAF1FF3F0AD024F41D
:10127000D064002E11DDBAF12B0F08D0BAF12D0F7A
:101280000BD102E0404611B0ABE744F48064B96989
:101290006D1C0E9888478246761E6946600501D50A
:1012A0002D2000E02B208DF8000001F1010B0DF145
:1012B000200809E0B9696D1C0E98884782460F988E
:1012C00044F40074761E0560002E02DDBAF1300F82
:1012D000F0D00B998A453ED144F0800406E00F9986
:1012E000681CA9F1010944F400740860B9696D1C17
:1012F000761E0E98884782463028F0D02BE00B9956
:101300008A4505D1200603D444F08004761E18E0F7
:10131000504603F0EFFF08B30DF11301761E44F4BD
:1013200000748B4508D2AAF130000BF8010B20069F
:1013300007D5A9F1010003E0200602D409F101005C
:101340008146A00502D50F99681C0860B9696D1C1B
:101350000E9888478246002ED1DC53E0002E51DDE6
:10136000BAF1650F02D0BAF1450F4BD1A00549D5AE
:10137000B9696D1C24F44074761E0E988847824625
:10138000002E0CDD2B2804D0BAF12D0F07D144F428
:101390008074B9696D1C0E9888478246761EE005F8
:1013A00001D52D2100E02B2108F8011BCDF82C8060
:1013B00021E00DF12901761E44F4007488450CD219
:1013C000AAF1300010F0FF0088F8000002D10B995C
:1013D000884509D908F1010806E0E00501D524484F
:1013E00001E042F20F708146B9696D1C0E98884782
:1013F00082460F980560002E04DD504603F07AFF08
:101400000028D6D1F9690E988847FF208BF8000094
:1014100088F800000020069007904B466A4608A90D
:1014200006A8FFF78BFEA00502D46FF001002AE7A3
:1014300014F0240F0AD0E00714D1DDE90612386851
:10144000031D3B600068C0E900120BE0DDE9060106
:1014500000F07DF80146E00704D13868021D3A60CB
:101460000068016028460EE7000024400000F03FBD
:10147000F1D8FFFF2DE9F74F4FF00009009C15460A
:10148000CA4614F8010B302801D0ADB115E014F8AC
:10149000010B4FF00109782803D0582801D04DB135
:1014A0000BE00DB1102D08D14FF00009102514F8F4
:1014B000010B02E0082500E00A2500273E46B84659
:1014C0004FEAE57B16E0A5FB07230BFB073105FB85
:1014D000080005FB0616030CD71846F100061FFA94
:1014E00080F8381E4FF0010976F5803000D3CA46E7
:1014F00014F8010B2946FFF76AF90028E3DA01988E
:1015000038B1B9F1000F01D0641E00E0009C0198D1
:101510000460BAF1000F08D003F0D0FD0221016091
:10152000C81E014603B0BDE8F08F310441EA1741FF
:1015300048EA0740F6E70EB540F233420292002235
:10154000CDE900221346FFF72AFA03B000BD01F0EF
:10155000004330B421F0004150EA010206D00A0DE8
:10156000A2F56072C1F31301002A02DC30BC002036
:101570007047440F44EAC104C100E01830BC00EBDE
:10158000C250AFF300800029A8BF7047401C49003B
:1015900008BF20F00100704710B4B0FA80FC00FAD8
:1015A0000CF050EA010404BF10BC704749B1CCF103
:1015B000200421FA04F411FA0CF118BF012121438F
:1015C0000843A3EB0C01CB1D4FEA00614FEA10204A
:1015D00042BF002010BC704700EBC35010440029EC
:1015E000A4BF10BC7047401C490008BF20F0010098
:1015F00010BC704770B58C1810F8015B15F007032C
:1016000001D110F8013B2A1106D110F8012B03E09B
:1016100010F8016B01F8016B5B1EF9D12B0705D4A3
:101620000023521E0DD401F8013BFAE710F8013BEC
:10163000CB1A921C03E013F8015B01F8015B521E08
:10164000F9D5A142D8D3002070BD00BFFEE700004D
:1016500010B5024800F0DEF810BD0000340800208C
:1016600010B5024800F0D6F810BD00009408002024
:1016700010B5024800F0CEF810BD0000F4080020BC
:1016800010B5024800F0C6F810BD00005409002053
:101690000146087810381823B0FBF3F20848805C44
:1016A000C865032A05D908686FF30900001D88651D
:1016B00003E008686FF309008865886D70470000D3
:1016C0008CB40008014600208A6A8B69CBB932B11C
:1016D000012A0DD0022A03D0032A10D10EE000BF48
:1016E000CB6A03F08073B3F1807F00D1012007E063
:1016F000CB6AB3F1C07F00D1012001E000E000BF60
:1017000034E08B69B3F5005F1AD132B1012A07D0FA
:10171000022A03D0032A11D10AE000BF01200EE003
:10172000CB6A03F08073B3F1807F00D1012006E023
:10173000CB6AB3F1C07F00D1012000E000BF15E00B
:1017400032B1012A05D0022A04D0032A0CD103E0C9
:1017500000BF00BF012008E0CB6A03F08073B3F143
:10176000807F00D1012000E000BF00BF704730B58E
:101770000468246824F4802405682C60046863608D
:101780008468402C04D10468A2600468E16003E02E
:101790000468A1600468E26030BD7047704701468C
:1017A000002070472DE9F04781460E4614461D463D
:1017B000089FA2B23B463146034801F03DFF8046F8
:1017C0002C604046BDE8F087B40700202DE9F041C9
:1017D00007460D4614461E46A2B233462946024825
:1017E00002F017F8BDE8F081B4070020014691F837
:1017F0003500022803D0802048650120704705206D
:1018000081F835000868006820F001000A6810605F
:101810000020F3E7F8B50446002000908C480068EB
:101820004FF41651B0FBF1F7A56D2E6894F85C10DB
:1018300008208840304098B12068006800F004001B
:1018400070B12068006820F004002168086094F8F6
:101850005C1008208840A860606D40F00100606561
:1018600094F85C1001208840304068B120684069DD
:1018700000F0800040B194F85C1001208840A8601E
:10188000606D40F00200606594F85C1004208840B0
:10189000304068B12068006800F0020040B194F860
:1018A0005C1004208840A860606D40F00400606512
:1018B00094F85C1010208840304078B320680068AD
:1018C00000F0080050B394F85C1010208840A86025
:1018D0002068006800F4802080B12068006800F46F
:1018E000002028B9206CC8B12046216C884715E03B
:1018F000A06C98B12046A16C88470FE02068006872
:1019000000F4807028B92068006820F00800216881
:101910000860206C10B12046216C884794F85C1058
:10192000202088403040002865D02068006800F002
:10193000100000285FD094F85C1020208840A86038
:1019400094F83500052828D12068006820F016009A
:10195000216808602068406920F0800021684861A3
:10196000206C08B9A06C28B12068006820F008003D
:101970002168086094F85C103F208840A86000BF90
:10198000002084F8340000BF012084F83500206D69
:1019900010B12046216D8847F8BD2068006800F42A
:1019A000802080B12068006800F4002028B9606CB5
:1019B00010B12046616C88471DE0E06BD8B120462D
:1019C000E16B884717E02068006800F4807068B910
:1019D0002068006820F010002168086000BF002027
:1019E00084F8340000BF012084F83500E06B10B1AA
:1019F0002046E16B8847606D38B3606D00F00100F0
:101A0000F0B1052084F835002068006820F001005E
:101A10002168086000BF0098401C0090B84200D9BF
:101A200005E02068006800F001000028F3D100BF45
:101A300000BF002084F8340000BF012084F8350086
:101A4000E06C10B12046E16C884700BFA4E70000BD
:101A5000C80000202DE9F0410446002500F0DAF925
:101A6000074614B90120BDE8F081606A00B100BFEB
:101A700000BF002084F8340000BF022084F8350045
:101A80002068006820F00100216808600AE000F08A
:101A9000C1F9C01B052805D920206065032084F802
:101AA0003500E0E72068006800F001000028EED172
:101AB0002068056821480540D4E901010843E16830
:101AC00008432169084361690843A1690843E16942
:101AD0000843216A08430543606A042803D1D4E916
:101AE0000B0108430543206805602068456925F01F
:101AF0000705606A0543606A04280DD1A06A0543A2
:101B0000E06A48B12046FFF7DDFD28B1402060655E
:101B1000012084F83500A6E7206845612046FFF7DC
:101B2000B7FD064694F85C103F208840B060002066
:101B30006065012084F83500002094E73F8010F0B4
:101B40002DE9F04704460D4616461F464FF00008A3
:101B5000D4F8589000BF94F83400012802D1022034
:101B6000BDE8F087012084F8340000BF94F8350008
:101B7000012825D1022084F83500002060653B460D
:101B8000324629462046FFF7F2FD94F85C103F20CC
:101B90008840C9F808002068006840F016002168F5
:101BA0000860206C28B12068006840F008002168B7
:101BB00008602068006840F001002168086006E0C5
:101BC00000BF002084F8340000BF4FF002084046F8
:101BD000C6E7000070B5044600F01CF9064625462D
:101BE000681C10B104480078054400BF00F012F9E9
:101BF000801BA842FAD370BDD800002010B504465F
:101C0000204608F0D5FB10BDF8B502460B4600256E
:101C1000002400200021DCE0012606FA01F51E6800
:101C200006EA0504AC4273D15E68012E08D05E68F6
:101C3000022E05D05E68112E02D05E68122E13D1DE
:101C400090684F000326BE40B0434F00DE68BE40A0
:101C500030439060506801268E40B0431E79C6F331
:101C600000168E4030435060D0684F000326BE40BF
:101C7000B0434F009E68BE403043D0605E68022E85
:101C800002D05E68122E13D1CF0802F1200656F85A
:101C900027004E07F70E0F26BE40B0434F07FF0E3A
:101CA0001E69BE403043CF0802F1200646F82700E7
:101CB00010684F000326BE40B0431E7906F00306AD
:101CC0004F00BE40304310605E6806F08056B6F1AB
:101CD000805F7DD100BF00260096404E366846F4F6
:101CE00080463E4F3E603E46366806F4804600968B
:101CF00000BF00BF3A4E8F0856F827008E07370FF7
:101D00000F26BE40B043374EB24202D1002624E037
:101D10005EE0354EB24201D101261EE0334EB242A2
:101D200001D1022619E0324EB24201D1032614E05D
:101D3000304EB24201D104260FE02F4EB24201D103
:101D400005260AE02D4EB24201D1062605E02C4EB2
:101D5000B24201D1072600E008268F073F0FBE40A0
:101D600030431F4E8F0846F82700264E3068A043A8
:101D70005E6806F48036B6F5803F00D12043214EE0
:101D80003060361D3068A0435E6806F40036B6F554
:101D9000003F00D120431B4E361D3060361D306899
:101DA000A0435E6806F48016B6F5801F00D120437C
:101DB000144E08363060361D3068A0435E6806F465
:101DC0000016B6F5001F00D120430E4E0C363060D1
:101DD000491C1029FFF420AFF8BD00004438024030
:101DE00008380140000002400004024000080240A0
:101DF000000C024000100240001402400018024093
:101E0000001C0240003C01400AB1816101E00B046A
:101E1000836170470148006870470000D0000020CF
:101E2000034800680349097808440149086070477D
:101E3000D0000020D800002010B50D48006840F404
:101E400000700B4908600846006840F48060086034
:101E50000846006840F480700860032000F006F92E
:101E6000002000F007F800F051F8002010BD00003D
:101E7000003C024070B588B00446002500260022D0
:101E80002146192000F0B3F8192000F0A0F800BF97
:101E9000002001901648006840F0010014490860D5
:101EA0000846006800F00100019000BF00BF02A9D1
:101EB00003A800F0B1F900F0E7F945000D48B5FBC3
:101EC000F0F0461E0C480D49086040F2E7310B481F
:101ED000C160466000210161816000F0E4FF20B92B
:101EE000064800F0FBFF08B070BD0120FBE70000D2
:101EF0004438024040420F0000000140B409002075
:101F000010B50446204606F0AFFF10BD08B500BF6F
:101F1000002000901148006840F480400F4908609C
:101F20000846006800F48040009000BF00BF00BF7A
:101F300000200090081F006840F08050091F0860D2
:101F40000846006800F08050009000BF00BF0022EB
:101F50000F21901E00F04BF808BD000044380240ED
:101F600010B5012008F064FD04460CB9002010BD36
:101F70002046FCE770B5044604B970BD25462846E6
:101F800008F074FA00BFF8E770B5044604B970BDF4
:101F900026464FF0FF31304608F0A8FE054605E022
:101FA0004FF0FF31304608F0A1FE0546012DF7D174
:101FB00000BFECE770B5044604B970BD25460023A8
:101FC0001A461946284608F0BDFD00BFF5E7014650
:101FD0000846002809DB00F01F0301229A4043094C
:101FE0009B0003F1E023C3F8002100BF70472DE9F7
:101FF000F05F80460D461646002703F043F807467B
:1020000039462A46334601F00700C0F1070ABAF103
:10201000040F02D94FF0040A01E0C0F1070AD146CB
:1020200000F1040ABAF1070F02D24FF0000A01E0F2
:10203000A0F1030AD4464FF0010A0AFA09FAAAF1FC
:10204000010A0AEA020A0AFA0CFA4FF0010B0BFA2B
:102050000CFBABF1010B0BEA030B4AEA0B04214624
:10206000404603F017F8BDE8F09F000000BF00F005
:102070000702064B19684FF6FF031940044B0B4348
:1020800043EA0221014B196000BF70470CED00E0EC
:102090000000FA0570B504460D460CB9012070BD6C
:1020A0005848006800F00F00A84209D255490D7049
:1020B0000846006800F00F00A84201D00120EEE7BA
:1020C000207800F0020002281DD1207800F00400E2
:1020D000042805D14C48006840F4E0504A490860A3
:1020E000207800F00800082805D14748006840F42F
:1020F0006040454908604448006820F0F000A1684D
:10210000084341490860207800F00100A8B36068E6
:10211000012807D13C4808380068C0F34040B8B9EE
:102120000120BCE76068022802D06068032807D15C
:10213000354808380068C0F3406048B90120AEE770
:10214000314808380068C0F3400008B90120A6E70C
:102150002D48006820F00300616808432A490860A0
:10216000FFF758FE064609E0FFF754FE801B41F2D8
:102170008831884202D9032091E707E022480068AD
:1021800000F00C006168B0EB810FEDD11D480068D4
:1021900000F00F00A84209D91A490D7008460068DE
:1021A00000F00F00A84201D0012078E7207800F06D
:1021B0000400042807D11448006820F4E050E168C6
:1021C000084311490860207800F00800082808D169
:1021D0000D48006820F46040216940EAC1000A49C6
:1021E000086000F061F808490968C1F30311074A63
:1021F000515CC8400649086006480068FFF73AFE8F
:1022000000204CE7003C02400838024074B400084B
:10221000C8000020D40000200F2202600D4A12687E
:1022200002F0030242600B4A126802F0F002826080
:10223000084A126802F4E052C260064A126802F4C8
:102240006042D2080261044A126802F00F020A607A
:102250007047000008380240003C02400148006816
:1022600070470000C800002000B5FFF7F7FF0449E1
:102270000968C1F38221034A515CC84000BD0000D7
:102280000838024084B4000800B5FFF7E7FF0449AE
:102290000968C1F34231034A515CC84000BD0000E7
:1022A0000838024084B400082DE9F04700240025D6
:1022B0000026A1462548006800F00C0020B1042843
:1022C00005D008283AD105E0DFF8849039E0DFF83E
:1022D000849036E01D48001F006800F03F041B4852
:1022E000001F006800F4800078B11A481749091FE0
:1022F0000968C1F38811A0FB017001462246002342
:102300003846FDF7D3FF05460EE011480F49091F77
:102310000968C1F38811A0FB017001462246002321
:102320003846FDF7C3FF05460848001F0068C0F3A4
:102330000140401C4600B5FBF6F902E0DFF81090C2
:1023400000BF00BF4846BDE8F087000008380240E3
:102350000024F40000127A00F8B504460CB90120FC
:10236000F8BD207800F00100002874D0F94800681A
:1023700000F00C0004280DD0F648006800F00C00B6
:10238000082813D1F348001F006800F48000B0F55E
:10239000800F0BD1EF4808380068C0F34040002898
:1023A00059D06068002856D10120D9E700BF606885
:1023B000B0F5803F08D1E7480838006840F4803025
:1023C000E449083908601EE06068B0F5A02F0DD11F
:1023D000E0480838006840F48020DE490839086089
:1023E0000846006840F4803008600CE0D94808389E
:1023F000006820F48030D749083908600846006832
:1024000020F48020086000BF606890B1FFF702FDF3
:10241000054606E0FFF7FEFC401B642801D90320B7
:102420009EE7CC4808380068C0F340400028F1D04F
:1024300011E0FFF7EFFC054606E0FFF7EBFC401B61
:10244000642801D903208BE7C24808380068C0F32C
:1024500040400028F1D1207800F0020002285FD12E
:10246000BC48006800F00C0058B1BA48006800F0A1
:102470000C0008281CD1B748001F006800F4800039
:10248000B0B9B44808380068C0F3400020B1E06833
:10249000012801D0012063E7AE480838006820F029
:1024A000F800216940EAC100AA490839086037E00C
:1024B000E06800B30120A8490860FFF7ABFC0546BF
:1024C00006E0FFF7A7FC401B022801D9032047E7DD
:1024D000A04808380068C0F340000028F1D09D48AB
:1024E0000838006820F0F800216940EAC1009949E5
:1024F0000839086014E0002097490860FFF78AFC5B
:10250000054606E0FFF786FC401B022801D90320A0
:1025100026E7904808380068C0F340000028F1D151
:10252000207800F0080008282CD16069A8B10120AB
:102530008A490860FFF76EFC054606E0FFF76AFC73
:10254000401B022801D903200AE782486C3000684A
:10255000C0F340000028F1D014E000207F4908605B
:10256000FFF758FC054606E0FFF754FC401B022825
:1025700001D90320F4E677486C300068C0F34000CE
:102580000028F1D1207800F00400042870D1002741
:1025900070483830006800F0805090B900BF0020CB
:1025A00000906C483830006840F0805069493831FC
:1025B00008600846006800F08050009000BF00BF2F
:1025C00001276748006800F48070B0B9644800686B
:1025D00040F4807062490860FFF71CFC054606E085
:1025E000FFF718FC401B022801D90320B8E65C481D
:1025F000006800F480700028F2D000BFA0680128B5
:1026000008D154486830006840F0010051496831F1
:1026100008601DE0A06805280DD14E4868300068AC
:1026200040F004004B49683108600846006840F0FB
:10263000010008600CE047486830006820F00100A5
:102640004449683108600846006820F004000860CA
:1026500000BFA068A8B1FFF7DDFB054609E0FFF762
:10266000D9FB401B41F28831884202D9032077E62A
:1026700026E0384868300068C0F340000028EED0FB
:1026800013E0FFF7C7FB054608E0FFF7C3FB401B5D
:1026900041F28831884201D9032061E62D48683033
:1026A0000068C0F340000028EFD1012F07D129486E
:1026B0003830006820F0805026493831086000BF6B
:1026C000A069002845D02348006800F00C000828C5
:1026D0005DD0A069022845D100201F490866FFF798
:1026E00099FB054606E0FFF795FB401B022801D940
:1026F000032035E6174808380068C0F3406000281A
:10270000F1D1D4E907010843616A40EA811101224D
:10271000A06AC2EB500041EA00412C20005D41EA72
:1027200000600C49091F086001200B490866FFF78B
:1027300071FB054606E0FFF76DFB401B022801D93F
:1027400003200DE6034808380068C0F34060002805
:10275000F1D03FE00838024000004742800E474277
:102760000070004000201C490866FFF753FB054637
:1027700006E0FFF74FFB401B022801D90320EFE5DD
:1027800016480068C0F340600028F2D122E0A0693A
:10279000012800D1E4E51148001D066806F4800117
:1027A000E069814214D106F03F01206A81420FD1D5
:1027B00047F6C0703040616A884209D106F4403162
:1027C000A06A814204D106F07061E06A814201D0C2
:1027D0000120C5E50020C3E5000047420038024063
:1027E00010B504460CB9012010BD606A00B900BFE5
:1027F0000021A16294F8510028B9002084F850000B
:10280000204600F033F8022084F851002068006868
:1028100020F0400021680860D4E901010843E16824
:1028200008432169084361690843218B01F4007161
:102830000843E1690843216A0843A16A0843216803
:1028400008600421A06901EA1040616A0843216818
:1028500048602068C06920F400602168C8610020D9
:102860006065012084F851000020BDE710B586B0F6
:102870000446142101A8FDF7BFFD1B4920688842CA
:102880002FD100BF002000901848006840F480500D
:10289000164908600846006800F48050009000BFA8
:1028A00000BF00BF0020009010481438006840F0BE
:1028B00002000E49143908600846006800F0020062
:1028C000009000BF00BF382001900220029000203D
:1028D0000390032004900520059001A90448FFF708
:1028E00093F906B010BD00000030014044380240AA
:1028F000000402402DE9F8430446884616461D466A
:102900004FF000096068B0F5827F0DD1A06858B91A
:10291000042084F851003346424641462046009543
:1029200000F06BF9BDE8F88300BF94F8500001286F
:1029300001D10220F6E7012084F8500000BFFFF724
:1029400069FA074694F85100012802D04FF00209B5
:1029500078E0B8F1000F00D016B94FF0010971E02E
:10296000042084F8510000206065C4F83880A687F0
:10297000E6872063A086E08620646064A068B0F5E6
:10298000004F05D12068006820F48040216808606D
:102990002068006800F04000402805D020680068EA
:1029A00040F0400021680860E068F8B91AE020684B
:1029B000806800F0010050B12068007BA16B0870B6
:1029C000A06B401CA063E08F401EE0870AE0FFF789
:1029D00021FAC01BA84201D3681C00B915B94FF0F9
:1029E00003092FE0E08F0028E1D11EE01AE0206803
:1029F000806800F0010050B12068C068A16B0880B9
:102A0000A06B801CA063E08F401EE0870AE0FFF708
:102A100001FAC01BA84201D3681C00B915B94FF0D8
:102A200003090FE0E08F0028E1D13A46294620460D
:102A300001F046F908B120206065606D08B14FF0E3
:102A4000010900BF012084F8510000BF002084F874
:102A5000500000BF484665E72DE9F84F0446884618
:102A600016461D464FF0000A00BF94F8500001289A
:102A700002D10220BDE8F88F012084F8500000BF89
:102A8000FFF7C8F90746B14694F85100012802D073
:102A90004FF0020AA7E0B8F1000F00D016B94FF0CE
:102AA000010AA0E0032084F8510000206065C4F80A
:102AB0003080A686E686A063A087E08760642064F5
:102AC000A068B0F5004F05D12068006840F4804050
:102AD000216808602068006800F04000402805D0A8
:102AE0002068006840F0400021680860E068B0F5A8
:102AF000006F2FD1606810B1B9F1010F09D1206BBF
:102B000000882168C860206B801C2063E08E401E16
:102B1000E0861BE02068806800F0020002280AD1ED
:102B2000206B00882168C860206B801C2063E08EC9
:102B3000401EE0860AE0FFF76DF9C01BA84201D3F2
:102B4000681C00B915B94FF0030A4CE0E08E00286C
:102B5000E0D12EE0606810B1B9F1010F09D1206B0E
:102B6000007821680873206B401C2063E08E401EB3
:102B7000E0861BE02068806800F0020002280AD18D
:102B8000206B007821680873206B401C2063E08E66
:102B9000401EE0860AE0FFF73DF9C01BA84201D3C2
:102BA000681C00B915B94FF0030A1CE0E08E00283C
:102BB000E0D13A462946204601F0CCF808B1202061
:102BC0006065A06850B900BF002000902068C06810
:102BD000009020688068009000BF00BF606D08B161
:102BE0004FF0010A00BF012084F8510000BF00200F
:102BF00084F8500000BF50463CE72DE9FF5F0446D3
:102C0000884691461D460E9E0120029000200190AC
:102C100000BF94F85000012803D1022004B0BDE8A1
:102C2000F09F012084F8500000BFFFF7F3F807463B
:102C300094F851B060680390AA46BBF1010F0BD025
:102C40000398B0F5827F04D1A06810B9BBF1040FDE
:102C500002D002200190DBE0B8F1000F03D0B9F1FF
:102C6000000F00D015B901200190D1E094F8510077
:102C7000042802D0052084F8510000206065C4F8C3
:102C80003890E587A587C4F83080E586A58620645E
:102C900060642068006800F04000402805D020688B
:102CA000006840F0400021680860E068B0F5006FFF
:102CB0004AD1606810B1BAF1010F09D1206B0088C8
:102CC0002168C860206B801C2063E08E401EE08677
:102CD00033E02068806800F00200022810D1E08E06
:102CE00070B1029801280BD1206B00882168C86060
:102CF000206B801C2063E08E401EE0860020029046
:102D00002068806800F0010068B1E08F58B1206849
:102D1000C068A16B0880A06B801CA063E08F401E80
:102D2000E08701200290FFF775F8C01BB04204D382
:102D3000701C10B1032001906AE0E08E0028C8D119
:102D4000E08F0028C5D14AE0606810B1BAF1010FE8
:102D500009D1206B007821680873206B401C206328
:102D6000E08E401EE08634E02068806800F00200BB
:102D7000022810D1E08E70B1029801280BD1206B8F
:102D8000007821680873206B401C2063E08E401E91
:102D9000E086002002902068806800F0010068B1A1
:102DA000E08F58B12068C068A16B0870A06B401C10
:102DB000A063E08F401EE08701200290FFF72AF811
:102DC000C01BB04201D3701C00B916B9032001909A
:102DD0001EE0E08E0028C7D1E08F0028C4D13A461B
:102DE0003146204600F0B6FF20B10120019020209E
:102DF00060650DE0A06850B900BF00200090206819
:102E0000C068009020688068009000BF00BF00BFCD
:102E1000012084F8510000BF002084F8500000BF5A
:102E20000198FBE610B5002400210A2007F0D2FD2E
:102E300004460CB9002010BD2046FCE770B50446DE
:102E400004B970BD2546284607F010FB00BFF8E71F
:102E500070B5044604B970BD254600231A461946CC
:102E6000284607F06FFE00BFF5E72DE9F041044664
:102E70000E46002714B9781EBDE8F081254631467C
:102E8000284607F033FF0746012F02D04FF0FF30EE
:102E9000F2E70020F0E710B50446204605F0C6FA38
:102EA00010BD7047704710B504460CB9012010BD25
:102EB00094F83D0028B9002084F83C00204600F03A
:102EC0000CF8022084F83D00211D206801F010F963
:102ED000012084F83D000020E9E7704701460868BA
:102EE000C06840F001000B68D8600868806800F096
:102EF0000702062A05D00868006840F001000B6848
:102F0000186000207047704710B5044620680069BB
:102F1000C0F34000D8B12068C068C0F34000B0B131
:102F20006FF0020021680861012020772068806925
:102F300000F0030018B12046FFF7E5FF05E020464A
:102F400000F0ADF8204600F0ABF8002020772068B4
:102F50000069C0F38000D8B12068C068C0F3800069
:102F6000B0B16FF00400216808610220207720686A
:102F7000806900F4407018B12046FFF7C4FF05E0F7
:102F8000204600F08CF8204600F08AF800202077D8
:102F900020680069C0F3C000D8B12068C068C0F3E1
:102FA000C000B0B16FF008002168086104202077EC
:102FB0002068C06900F0030018B12046FFF7A3FFA6
:102FC00005E0204600F06BF8204600F069F800208C
:102FD000207720680069C0F30010D8B12068C0686D
:102FE000C0F30010B0B16FF0100021680861082034
:102FF00020772068C06900F4407018B12046FFF7C0
:1030000082FF05E0204600F04AF8204600F048F82C
:10301000002020772068006900F0010058B1206886
:10302000C06800F0010030B16FF001002168086154
:10303000204600F037F820680069C0F3C01058B18E
:103040002068C068C0F3C01030B16FF08000216804
:1030500008612046FFF725FF20680069C0F3801053
:1030600058B12068C068C0F3801030B16FF04000E4
:1030700021680861204600F021F820680069C0F34B
:10308000401058B12068C068C0F3401030B16FF0F4
:103090002000216808612046FFF704FF10BD70473B
:1030A0007047000010B5044603492068884201D1EA
:1030B000FEF7B6FE10BD00000000014070470000A2
:1030C0002DE9F04F85B006460F4693461C46DDF8C5
:1030D000388026B94FF0FF3005B0BDE8F08F17B942
:1030E0004FF0FF30F8E714B94FF0FF30F4E7B8F1D4
:1030F000000F02D14FF0FF30EEE7B8F1000F02D021
:103100000020C8F80000206910B90FF2480901E05A
:10311000D4F81090A06810B94FF4807A01E0D4F888
:1031200008A0CDF8009001972088ADF80800002095
:1031300003900AF10300800804905946684605F0A0
:1031400086F9054615B94FF0FF30C5E73560002018
:10315000C2E700006C696E6B6B69745F7461736BBE
:1031600000000000704700002DE9F0470446206889
:1031700005682068C668206847694FF00008C146A6
:1031800005F00F08B8F1000F0AD105F0200038B1A2
:1031900006F0200020B1204601F09CF8BDE8F08741
:1031A000B8F1000F72D007F0010018B906F4907062
:1031B00000286BD005F0010030B106F4807018B122
:1031C000E06B40F00100E06305F0040030B107F06F
:1031D000010018B1E06B40F00200E06305F002006E
:1031E00030B107F0010018B1E06B40F00400E0637B
:1031F00005F0080048B106F0200010B907F0010002
:1032000018B1E06B40F00800E063E06B70B305F0CC
:10321000200028B106F0200010B1204601F05AF835
:1032200020684069C0F38019E06B00F0080010B915
:10323000B9F1000F23D0204601F022F82068406940
:1032400000F04000402816D12068406920F040007E
:1032500021684861606B50B11748616B0865606B0D
:10326000FEF7C4FA10B1606B016D88470CE0204690
:10327000FFF778FF08E02046FFF774FF04E02046E0
:10328000FFF770FF0020E06388E7FFE705F08000AC
:1032900030B106F0800018B1204601F063FA7DE7F6
:1032A00005F0400030B106F0400018B1204600F0B3
:1032B000F7FF73E700BF71E7C941000810B5044686
:1032C0000CB9012010BDA06900B100E000BF94F866
:1032D000390028B9002084F83800204600F028F88A
:1032E000242084F839002068C06820F40050216848
:1032F000C860204601F042F82068006920F4904040
:10330000216808612068406920F02A00216848612E
:103310002068C06840F400502168C8600020E06365
:10332000202084F8390084F83A000020CAE7000021
:1033300010B586B00446142101A8FDF75DF8B04928
:103340002068884231D100BF00200090AD4800685D
:1033500040F01000AB4908600846006800F010001B
:10336000009000BF00BF00BF00200090A5481438A7
:10337000006840F00100A34914390860084600685D
:1033800000F00100009000BF00BF4FF4C06001904A
:103390000220029000200390032004900720059053
:1033A00001A99948FEF730FC27E198492068884236
:1033B00071D100BF002000909248001F006840F4C7
:1033C00000309049091F08600846006800F400308A
:1033D000009000BF00BF00BF002000908948143853
:1033E000006840F001008749143908600846006809
:1033F00000F00100009000BF00BF0C2001900220EF
:10340000029000200390032004900720059001A95A
:103410007D48FEF7F9FB7E487E4908604FF000606A
:10342000486000217B488160C1604FF48061016188
:103430000021416181614FF48071C161002101620D
:103440004162FEF707FB08B1FEF7A8F900BF71481B
:103450006063846300BF6E4818306F4908604FF0A6
:103460000060486040216C4881600021C1604FF4D9
:1034700080610161002141618161C161016241623C
:10348000FEF7E8FA08B1FEF789F900BF6248206349
:103490008463B2E0FFE761492068884233D100BF0E
:1034A000002000905748001F006840F480205549D4
:1034B000091F08600846006800F48020009000BFE3
:1034C00000BF00BF002000904E481438006840F054
:1034D00002004C49143908600846006800F00200F8
:1034E000009000BF00BF4FF44060019002200290A6
:1034F00000200390032004900720059001A948486C
:10350000FEF782FB79E047492068884275D100BF09
:10351000002000903B48006840F0200039490860D6
:103520000846006800F02000009000BF00BF00BF08
:103530000020009033481438006840F004003149FE
:10354000143908600846006800F00400009000BFCD
:1035500000BFC020019002200290002003900320B1
:1035600004900820059001A92F48FEF74DFB2F4835
:103570002F4908608005486000212D488160C160A6
:103580004FF4806101610021416181614FF48071DC
:10359000C161002101624162FEF75CFA08B1FEF7E9
:1035A000FDF800BF22486063846300BF1F48783085
:1035B000204908604FF02060486040211D4881602C
:1035C0000021C1604FF4806101610021416181618E
:1035D000C16101624162FEF73DFA08B1FEF7DEF813
:1035E00000BF14482063846300BF002205214720E8
:1035F000FEF7FDFC4720FEF7EAFC06B010BD000018
:1036000000100140443802400000024000440040E5
:1036100088600240340800209408002000480040E0
:1036200000040240001401400008024028640240E7
:10363000F4080020540900202DE9F84304460D4603
:1036400016461F464FF0000994F83A00202861D131
:1036500005B116B90120BDE8F88300BF94F8380021
:10366000012801D10220F6E7012084F8380000BFCC
:103670000020E063222084F83A00FEF7CBFB81466D
:10368000A685E68500BF002084F8380000BF39E039
:10369000E08D401EE085A068B0F5805F1BD14B46F1
:1036A000002220212046009701F090F808B1032065
:1036B000D1E7A846206938B920684068C0F30800FF
:1036C000A8F80000AD1C1DE020684068C0B2A8F852
:1036D00000006D1C16E04B4600222021204600977A
:1036E00001F074F808B10320B5E7206920B920681B
:1036F000406805F8010B05E02068406800F07F0095
:1037000005F8010BE08D0028C2D1202084F83A0092
:103710000020A0E702209EE777B581B00446154659
:1037200094F83A00202850D1029800B115B9012030
:1037300004B070BD00BF94F83800012801D1022008
:10374000F6E7012084F8380000BF0298A062A58542
:103750000020E063222084F83A001D48616BC863B2
:103760001C48616B08641C48616BC8640020616B75
:10377000086502AE32682368191D2B46606BFEF7A0
:10378000DFF900BF002000902068006800902068EA
:103790004068009000BF00BF00BF002084F83800E0
:1037A00000BF2068C06840F480702168C86020684D
:1037B000406940F00100216848612068406940F09C
:1037C0004000216848610020B2E70220B0E7000015
:1037D0002D42000873420008DD41000810B5044680
:1037E0000948844205D190F83900202801D102F01F
:1037F0008BFF0648844205D190F83900202801D17A
:1038000004F030FA10BD0000F40700207407002017
:1038100070472DE9F84304460D4616461F464FF003
:10382000000994F8390020285DD105B116B90120AE
:10383000BDE8F88300BF94F83800012801D10220C8
:10384000F6E7012084F8380000BF0020E063212063
:1038500084F83900FEF7DEFA8146A684E68400BFCC
:10386000002084F8380000BF2BE0E08C401EE0848C
:10387000A068B0F5805F16D14B460022802120461B
:10388000009700F0A3FF08B10320D1E7A846B8F8DD
:103890000000C0F3080021684860206908B9AD1C29
:1038A0000FE06D1C0DE04B46002280212046009762
:1038B00000F08CFF08B10320BAE715F8010B21686E
:1038C0004860E08C0028D0D14B46002240212046A1
:1038D000009700F07BFF08B10320A9E7202084F8BF
:1038E00039000020A4E70220A2E7704700BFFEE7EE
:1038F00010B502F045F9002802DA4FF0FF3010BD94
:103900000020FCE708B500BF002000901E480068BA
:1039100040F480001C4908600846006800F48000FC
:10392000009000BF00BF00BF002000900846006864
:1039300040F4001008600846006800F40010009091
:1039400000BF00BF002205211020FEF750FB102011
:10395000FEF73DFB002205211120FEF748FB112058
:10396000FEF735FB002205213920FEF740FB392008
:10397000FEF72DFB002205214520FEF738FB4520F0
:10398000FEF725FB08BD00003038024000B58BB0C3
:1039900014220C4906A8FCF708FD002106A804F033
:1039A00056FD0949086014220649143101A8FCF7A4
:1039B000FCFC002101A804F04AFD044908600BB09A
:1039C00000BD00004CB40008C0000020C40000206E
:1039D00000B587B0142102A8FCF70EFD00BF00203F
:1039E00001902D48006840F004002B49086008460B
:1039F000006800F00400019000BF00BF00BF00207D
:103A000001900846006840F08000086008460068A1
:103A100000F08000019000BF00BF00BF00200190B7
:103A20000846006840F0010008600846006800F0A1
:103A30000100019000BF00BF00BF002001900846B8
:103A4000006840F0020008600846006800F00200CC
:103A5000019000BF00BF002248F2E0010F48FEF7CE
:103A6000D3F9A020029001200390002004900120AF
:103A7000059002A90948FEF7C7F848F240000290F5
:103A80000120039000200490059002A90348FEF74E
:103A9000BBF807B000BD0000303802400000024013
:103AA00010B50E480E4908604FF48270486000213E
:103AB0000B488160C160016141614FF40071816117
:103AC0000021C1610162416281620A21C162FEF787
:103AD00087FE08B1FDF762FE10BD00000030014016
:103AE000DC06002010B50B480B4908604FF4E130AC
:103AF0004860002108488160C16001610C2141617A
:103B000000218161C161FFF7D9FB08B1FDF746FED5
:103B100010BD0000001001403407002010B50B4814
:103B20000B4908604FF41650486000210848816036
:103B3000C16001610C21416100218161C161FFF718
:103B4000BDFB08B1FDF72AFE10BD00000044004097
:103B50007407002010B50B480B4908604FF4E130A2
:103B60004860002108488160C16001610C21416109
:103B700000218161C161FFF7A1FB08B1FDF70EFED5
:103B800010BD000000480040B407002010B50B48ED
:103B90000B4908604FF416504860002108488160C6
:103BA000C16001610C21416100218161C161FFF7A8
:103BB00085FB08B1FDF7F2FD10BD000000140140C7
:103BC000F407002000BFFEE7704700002DE9F04138
:103BD000FEF720F90646002500244CE00027042CBF
:103BE00001DA314800E031488046314800EBC4003A
:103BF0004068B0420BD92E4810F8340005432C48D9
:103C000010F83410404600F02FF901270DE0284845
:103C100000EBC400406840B1254810F834008543EB
:103C20000020234901EBC401486017BB2049601CF8
:103C300001EBC0004068B0420BD9601C11F83000A5
:103C400005430A46601C12F83010404600F00CF99B
:103C50000FE01749601C01EBC000406848B1601CD0
:103C600011F8300085430021114A601C02EBC000AE
:103C70004160A01CC4B2082CB0DB284600F040F91B
:103C80000C480068401C0B4908600B48007848B19C
:103C9000084600680949B0FBF1F201FB120008B9BF
:103CA00000F014F9BDE8F081B8010020DC0100202B
:103CB000780100206400002061000020C0C62D00B3
:103CC000F8B504460E4615466068B0F5827F0DD102
:103CD000A068B0F5004F03D0A068B0F5806F05D1A3
:103CE0002068006820F04000216808606068B0F536
:103CF000827F1FD1A068B0F5806F0DD033460022BF
:103D000080212046009500F05BF808B3606D40F01C
:103D1000200060650320F8BD3346002201212046C3
:103D2000009500F04DF898B1606D40F0200060659E
:103D30000320F0E73346002201212046009500F0E1
:103D40003FF828B1606D40F0200060650320E2E795
:103D50000020E0E77CB504460D461646164800688C
:103D60001821B0FBF1F01549B0FBF1F04FF47A7176
:103D7000484301906068B0F5827F0DD12B46002248
:103D800080212046009600F01BF898B1606D40F04D
:103D90002000606503207CBD00BF019800B908E0E9
:103DA0000198401E019020688068C0F3C010002870
:103DB000F3D100BF0020EEE7C800002040420F0012
:103DC0002DE9F04104460E4617461D46DDF81880E1
:103DD0003EE0681CD8B3FEF71DF8A0EB0800A8422F
:103DE00000D2A5BB2068406820F0E0002168486050
:103DF0006068B0F5827F0DD1A068B0F5004F03D0A8
:103E0000A068B0F5806F05D12068006820F0400000
:103E100021680860A06AB0F5005F0DD100BF20687E
:103E2000006820F40050216808602068006840F4B1
:103E300000502168086000BF012084F8510000BFD5
:103E4000002084F8500000BF0320BDE8F081FFE7A8
:103E5000206880683040B04201D1012000E000209D
:103E6000B842B6D10020F0E70122164B1A7001F0DB
:103E700001028AB101F0020232B10288002A0BDD90
:103E80000288643A028007E002880F4B1B889A423E
:103E900002DA02886432028001F004028AB101F081
:103EA000080232B14288002A0BDD4288643A42801F
:103EB00007E04288044B1B889A4202DA4288643247
:103EC00042807047610000205800002010B500209B
:103ED00000F0BCFC242300221146064801F030F813
:103EE00024231A460021044801F02AF8002003493F
:103EF000087010BDB8010020DC0100206100002026
:103F000070B50546002240211248FDF77DFF0024D0
:103F100016E0002220210F48FDF776FFC4F10700CC
:103F200045FA00F000F00106324680210948FDF70D
:103F30006BFF012220210748FDF766FF601CC4B219
:103F4000082CE6DB012240210248FDF75DFF00203E
:103F500070BD00000000024010B5044602F0E6FA11
:103F600010BD10B5044602F0C9FA10BD014600208C
:103F70000AE0012282400A4022B10022044B03EBF6
:103F8000C0035A60421CD0B20828F2DB7047000020
:103F90007801002010B500BF502080F31188BFF3D6
:103FA0004F8FBFF36F8F00BF07F016F818B14FF0B7
:103FB00080500449086000BF002080F3118800BFD2
:103FC00010BD000004ED00E000B593B0302107A85B
:103FD000FCF712FA142102A8FCF70EFA00BF002029
:103FE00001902448006840F080502249086008464B
:103FF000006800F08050019000BF00BF00BF0020AB
:1040000001901D48006840F480401B490860084644
:10401000006800F48040019000BF00BF01200790BD
:104020000004089002200D9041050E9104210F918B
:10403000A8211091022111910421129107A8FEF7E5
:104040008BF908B1FDF7AAFB0F2002900220039024
:10405000002004904FF4A05005904FF4805006903B
:10406000052102A8FEF716F808B1FDF797FB13B07B
:1040700000BD000040380240007000401448006855
:1040800040F47000124908601248006840F00100D6
:104090001049086000200F49083108600D48006889
:1040A0000D4908400B4908600C48091D0860081FAD
:1040B000006820F48020091F0860002005490C31A9
:1040C00008604FF0006002498039086070470000C6
:1040D00088ED00E000380240FFFFF6FE10300024BB
:1040E00010B50248FEF710FF10BD0000B409002013
:1040F00010B50268294B98420ED0B0F1804F0BD01A
:10410000274B984208D0274B984205D0264B98421F
:1041100002D0264B984203D122F070024B681A431A
:104120001E4B984220D0B0F1804F1DD01C4B9842BE
:104130001AD01C4B984217D01B4B984214D01B4BE3
:10414000984211D01A4B98420ED01A4B98420BD07D
:10415000194B984208D0194B984205D0184B9842F9
:1041600002D0184B984203D122F44072CB681A4314
:1041700022F080034C6943EA040202608B68C36248
:104180000B688362054B984202D0084B984201D1DC
:104190000B6903630123436110BD0000000001406F
:1041A0000004004000080040000C004000040140F2
:1041B0000040014000440140004801400018004018
:1041C000001C00400020004070B50546AC6B00208C
:1041D000E085E0842046FEF7C5FF70BD70B5064659
:1041E0000025B46B20684069C0F3C01594F839000D
:1041F000212805D125B10020E084204600F060F898
:1042000020684069C0F3801594F83A00222805D14F
:1042100025B10020E085204600F032F8E06B40F048
:104220001000E0632046FEF79DFF70BD70B50546A7
:10423000AC6B2868006800F48070B0B90020E0859D
:104240002068C06820F480702168C86020684069D8
:1042500020F00100216848612068406920F040009A
:1042600021684861202084F83A002046FFF7B6FA1A
:1042700070BD70B50446A56B2846FFF7C9FA70BD3E
:104280000168C96821F490710268D16001684969C8
:1042900021F0010102685161202180F83A10704735
:1042A00010B504462068C06820F040002168C8604E
:1042B000202084F839002046FFF717FB002010BDAE
:1042C0000168C96821F0C0010268D160202180F82E
:1042D0003910704770B5044694F83A0022284AD144
:1042E000A068B0F5805F13D1A56A206940B9206845
:1042F0004068C0F308002880A06A801CA06219E012
:1043000020684068C0B22880A06A401CA06211E00A
:10431000206938B920684068C1B2A26A501CA06206
:10432000117007E02068406800F07F01A26A501C0D
:10433000A0621170E08D401E80B2E085C8B920688F
:10434000C06820F020002168C8602068C06820F4A0
:1043500080702168C8602068406920F001002168F1
:104360004861202084F83A002046FFF737FA002001
:1043700070BD0020FCE70220FAE700002DE9F84FAD
:1043800004462068006920F44050E1680843216831
:1043900008612169A068084361690843E16908432D
:1043A00000902068C06849F20C6188430099084376
:1043B0002168C8602068406920F44070A169084302
:1043C00021684861E069B0F5004F75D1E349206884
:1043D000884203D0E249206888426FD1FDF754FF3C
:1043E000814602206168A0FB01510B461920A9FB00
:1043F00000712A463846FBF759FF6421B0FBF1F003
:104400004FEA001A02206168A0FB01510B461920F7
:10441000A9FB00712A463846FBF748FF07460220F1
:104420006168A0FB01510B461920A9FB00B12A4687
:104430005846FBF73BFF6421B0FBF1F000EBC001F5
:1044400001EB0010A7EB8000322101EBC0006421DA
:10445000B0FBF1F000F0F8000AEB400A02206168BE
:10446000A0FB01510B461920A9FB00712A463846D2
:10447000FBF71CFF074602206168A0FB01510B46B9
:104480001920A9FB00B12A465846FBF70FFF64210B
:10449000B0FBF1F000EBC00101EB0010A7EB8000D6
:1044A000322101EBC0006421B0FBF1F000F0070005
:1044B0005044216888604FE16EE0FFE7FDF7D4FECD
:1044C000814602206168A0FB01510B461920A9FB1F
:1044D00000712A463846FBF7E9FE6421B0FBF1F093
:1044E0004FEA001A02206168A0FB01510B46192017
:1044F000A9FB00712A463846FBF7D8FE0746022082
:104500006168A0FB01510B461920A9FB00B12A46A6
:104510005846FBF7CBFE6421B0FBF1F000EBC00185
:1045200001EB0010A7EB8000322101EBC0006421F9
:10453000B0FBF1F000F0F8000AEB400A02206168DD
:10454000A0FB01510B461920A9FB00712A463846F1
:10455000FBF7ACFE074602206168A0FB0150034652
:104560001920A9FB00B12A465846FBF79FFE64219B
:10457000B0FBF1F000EBC00101EB0010A7EB8000F5
:10458000322101EBC0006421B0FBF1F000F0070024
:10459000504421688860DFE070492068884203D079
:1045A0006F49206888426BD1FDF76EFE814604207A
:1045B0006168A0FB01510B461920A9FB00712A4636
:1045C0003846FBF773FE824604206168A0FB015168
:1045D0000B461920A9FB00712A463846FBF766FEF8
:1045E0006421B0FBF1F000EBC00101EB0010AAEB7D
:1045F0008000322101EB00106421B0FBF1F000F0EB
:10460000F00A04206168A0FB015003461920A9FBB1
:1046100000712A463846FBF749FE6421B0FBF1F0F1
:104620000AEB001A04206168A0FB01510B46192017
:10463000A9FB00712A463846FBF738FE07460420DE
:104640006168A0FB015003461920A9FB00B12A466E
:104650005846FBF72BFE6421B0FBF1F000EBC001E4
:1046600001EB0010A7EB8000322101EB0010642168
:10467000B0FBF1F000F00F005044216888606BE05F
:10468000FDF7F2FD814604206168A0FB015003465E
:104690001920A9FB00712A463846FBF707FE82461F
:1046A00004206168A0FB015003461920A9FB00719A
:1046B0002A463846FBF7FAFD6421B0FBF1F000EB27
:1046C000C00101EB0010AAEB8000322101EB0010C9
:1046D0006421B0FBF1F000F0F00A04206168A0FB57
:1046E000015003461920A9FB00712A463846FBF702
:1046F000DDFD6421B0FBF1F00AEB001A04206168D3
:10470000A0FB017003461920A9FB005001463A4660
:104710002846FBF7CBFD074604206168A0FB01504B
:1047200003461920A9FB00B12A465846FBF7BEFDF7
:104730006421B0FBF1F000EBC00101EB0010A7EB2E
:104740008000322101EB00106421B0FBF1F000F099
:104750000F00504421688860BDE8F88F00100140C8
:1047600000140140014691F8390021282CD18868B5
:10477000B0F5805F0FD10A6A1088C0F308000B689B
:104780005860086918B9086A801C086209E0086A5C
:10479000401C086205E00B6A581C086218780B6818
:1047A0005860C88C401E80B2C88458B90868C06878
:1047B00020F080000B68D8600868C06840F04000B6
:1047C0000B68D860002070470220FCE72DE9F0411B
:1047D00004460D4617469846069E21E0701CF8B127
:1047E0002EB1FDF717FBA0EB0800B04218D92068E6
:1047F000C06820F4D0702168C8602068406920F04B
:10480000010021684861202084F8390084F83A00CA
:1048100000BF002084F8380000BF0320BDE8F0810D
:10482000206800682840A84201D1012000E0002053
:10483000B842D3D00020F1E710B50248FEF794FC4F
:1048400010BD0000F407002000BFFEE710B50446CD
:1048500002E00120FDF7BEF91C4890F8270001286E
:10486000F7D00120194981F8270000F0C9FA17484C
:104870000069444300F0ECFA00224FF40041144870
:10488000FDF7C2FA202000F0ABFA104800780928A2
:1048900002DB200E00F0A4FAC4F3074000F0A0FAF7
:1048A000C4F3072000F09CFAE0B200F099FA01226C
:1048B000D1030748FDF7A8FA00F0A2FA0120FDF79E
:1048C00089F90020014981F8270010BD78060020F1
:1048D0000000024010B501204B4981F8270002E09A
:1048E0000120FDF777F9FDF795FA6428F8D3012246
:1048F000D1034648FDF788FA6420FDF76BF900F014
:1049000037F90446A0B2A0F5804011380A2844D2F5
:10491000DFE800F03D37312B251F19130C050A2065
:10492000394908704FF48060C8613BE0092036497E
:1049300008704FF40070C86134E0082032490870F4
:104940004001C8612EE007202F4908708020C8610F
:1049500028E006202C4908704020C86122E005208C
:10496000294908702020C8611CE0042026490870ED
:104970001020C86116E00320234908700820C86190
:1049800010E00220204908700420C8610AE00120DC
:104990001D4908700220C86104E000201A4981F80E
:1049A000270010BD00BF4FF48070174948810001F7
:1049B00008610846C0690001486108464069096904
:1049C000484311494989B0FBF1F00F49C8600846D6
:1049D0000069000188610846406909694843800A06
:1049E0000949086200F0C8F9012000F08DF90220A1
:1049F00000F08AF9032000F087F90020024981F8CD
:104A000027000120CDE700007806002000000240CA
:104A10002DE9F04188B006460F46904602E001209D
:104A2000FDF7D8F84F4890F827000128F7D001206B
:104A30004C4981F8270008460069404502D3B8F187
:104A4000000F02D14748D0F810803D4638E00022E0
:104A50004FF400414448FDF7D7F94248006906FB8E
:104A600000540B2000F0BCF93E480078092802DB16
:104A7000200E00F0B5F9C4F3074000F0B1F9C4F31B
:104A8000072000F0ADF9E0B200F0AAF9002000F034
:104A9000A7F96423202269463448FDF72BFF012241
:104AA000D1033148FDF7B0F9002006E01DF80010F1
:104AB000FF2900D050E0411CC8B22028F6D3203591
:104AC00028480069A842C2D82648007C384400F033
:104AD0001F0098B3203D33E000224FF400412248EC
:104AE000FDF792F91F48006906FB00540B2000F007
:104AF00077F91C480078092802DB200E00F070F9D5
:104B0000C4F3074000F06CF9C4F3072000F068F923
:104B1000E0B200F065F9002000F062F964230122A0
:104B200069461248FDF7E6FE0122D1030E48FDF763
:104B30006BF99DF80000FF2801D00DE004E06D1C2A
:104B400008480069A842C7D80020064981F8270014
:104B5000012008B0BDE8F0810020024981F827005B
:104B600000BFF6E77806002000000240DC060020C7
:104B70002DE9F041002400250026002700224FF4F3
:104B800000410F48FDF740F99F2000F029F9A520CA
:104B900000F026F90546A52000F022F90646A520DA
:104BA00000F01EF907460122D1030548FDF72CF954
:104BB000280440EA062040EA07042046BDE8F081C8
:104BC000000002402DE9F04107460C4616461D46FE
:104BD00002E00120FCF7FEFF264890F8270001289C
:104BE000F7D00120234981F8270008464089A842D0
:104BF00000D30DB91F48458970191E49498988425B
:104C000002D91C484089851B1A48408904FB00646E
:104C100000224FF400411848FDF7F6F80B2000F091
:104C2000DFF814480078092802DB200E00F0D8F8DD
:104C3000C4F3074000F0D4F8C4F3072000F0D0F824
:104C4000E0B200F0CDF8002000F0CAF8AAB2642368
:104C500039460A48FDF74EFE0122D1030648FDF70A
:104C6000D3F80120FCF7B6FF0020024981F82700A5
:104C7000BDE8F0817806002000000240DC0600203C
:104C80002DE9F04781468A4614461D461D480069B5
:104C9000A84200D30DB91B4805691A480069A04213
:104CA00001D8BDE8F087601916490969884203D91F
:104CB00014480069061B00E02E46504600F084F8B8
:104CC00010494989B4FBF1F147180E484089B4FBFB
:104CD000F0F100FB114800BF3346424639464846D2
:104CE000FFF770FF7F1C07484089A0EB0800361AC9
:104CF0000448408981444FF00008002EECDC00BFDE
:104D0000CFE700007806002070B505460024002299
:104D10004FF400411648FDF777F8012D0AD1052020
:104D200000F05EF8A52000F05BF80446114880F81A
:104D3000244016E0022D0AD1352000F051F8A520BC
:104D400000F04EF804460B4880F8254009E0152095
:104D500000F046F8A52000F043F80446054880F826
:104D600026400122D1030248FDF74EF8204670BDCF
:104D7000000002407806002010B500224FF40041E8
:104D80000F48FDF741F84B2000F02AF8002404E01A
:104D9000A52000F025F8601CC4B2042CF8DB002428
:104DA00006E0A52000F01CF806490855601CC4B2B6
:104DB000082CF6DB0122D1030148FDF725F810BDD0
:104DC000000002407906002001460448006948437B
:104DD000024A5289B0FBF2F07047000078060020CA
:104DE00001B582B06420012301AA02A90090034802
:104DF000FDF703FF9DF804000EBD0000DC06002057
:104E000010B50120FCF7E6FE00224FF400410E48E9
:104E1000FCF7FAFF0520FFF7E3FF00BFA520FFF72F
:104E2000DFFF0A4981F824000120FCF7D3FE074880
:104E300090F8240000F001000028EFD10122D103F6
:104E40000148FCF7E1FF10BD000002407806002099
:104E500010B500224FF400410748FCF7D5FF0620AB
:104E6000FFF7BEFF0122D1030348FCF7CDFF01206D
:104E7000FCF7B0FE10BD0000000002402DE9F0413B
:104E800007460C4615461E4602E00120FCF7A2FE2E
:104E9000284890F827000128F7D00120254981F8FB
:104EA000270070194989884200D816B921484089DD
:104EB000461BA8191F494989884202D91D484089C3
:104EC000461BFFF79DFFFFF7C3FF00224FF4004191
:104ED0001948FCF799FF0220FFF782FF1548408927
:104EE00004FB005413480078092802DB200EFFF76A
:104EF00077FFC4F30740FFF773FFC4F30720FFF702
:104F00006FFFE0B2FFF76CFFB2B2642339460B4883
:104F1000FDF7A2FD0122D1030748FCF775FFFFF75B
:104F20006FFF0120FCF756FE0020024981F82700A0
:104F3000BDE8F0817806002000000240DC06002079
:104F40002DE9F04781468A4614461D461D480069F2
:104F5000A84200D30DB91B4805691A480069A04250
:104F600001D8BDE8F087601916490969884203D95C
:104F700014480069061B00E02E465046FFF724FF48
:104F800010494989B4FBF1F147180E484089B4FB38
:104F9000F0F100FB114800BF33464246394648460F
:104FA000FFF76CFF7F1C07484089A0EB0800361A0A
:104FB0000448408981444FF00008002EECDC00BF1B
:104FC000CFE70000780600200FB41CB50A46521E39
:104FD000CDE9000207A9054B6A46069800F092F950
:104FE000009A002111701CBC5DF814FB335A0008B4
:104FF0000FB4084B10B504A902AA039800F082F977
:10500000044602A9002000F01FFD204610BC5DF8F8
:1050100014FB0000495A00087CB5491E1C46154681
:10502000CDE90001044B6A462146284600F06AF9A2
:10503000009A002111707CBD335A000830B47446C8
:10504000641E2578641CAB4200D21D46635D5B0084
:10505000E31830BC1847012249005205D14201D162
:10506000002801D00020704701207047002800D0A0
:1050700001200143480002494008081AC00F704748
:105080000000F07F02480068C0F302207047000073
:105090000CED00E010B5002804DB0A07130E054AEA
:1050A000135406E00A07140E034A00F00F031B1FF7
:1050B000D45410BD00E400E018ED00E00048704753
:1050C0006001002030B528B1144C031F0020216876
:1050D0000A4605E0084630BD9A4203D81046526899
:1050E000002AF9D1002800D041680BD00468A3EB56
:1050F0000005A54204D11B681C440346046002E07D
:10510000436000E023603AB11C68D51AA54203D180
:1051100015682C441C6052685A6030BD6401002040
:105120002DE9F04782460F4C10480D4E0E4F001BE4
:105130004FF0000820F007054FF00109002211464A
:10514000504602F05FF9002802D1306810B100200B
:10515000BDE8F0873C60C4E90058C6F80090EDE770
:1051600068010020044A0020640100200052002051
:1051700002E008C8121F08C1002AFAD17047704720
:10518000002001E001C1121F002AFBD1704700007E
:105190002DE9FF5FDDE90220010DDDF838B00243A3
:1051A00018D044F61050A1F2FF3141430D140F986E
:1051B000012820D0A5EB0B00401C5FEA000A4FF04D
:1051C0000004474EDFF81C91A046504616D5CAF1A0
:1051D000000728E00F98012443A2012808D00021ED
:1051E00000980F9BC0E90021C0E90243BDE8FF9F82
:1051F0006FEA0B01F4E7CBF10000DEE7074612E0AF
:10520000F80707D02246334640464946FBF7BCFC28
:10521000804689462246334610461946FBF7B4FCC1
:1052200004460E467F10002FEAD1DDE90201BAF1F3
:10523000000F42464B4602DAFBF7A6FC01E0FBF703
:1052400015FD04460E460022284BFBF797FD03D8B8
:105250004FF0FF30014607E00022254B2046314643
:10526000FBF7EBFBFBF771FD102409E0002C0ADBD8
:105270000A220023FBF71AF8019B30321A55641EEC
:1052800050EA0102F2D1641C019AC4F111031444E2
:105290000F9A012A03D0012208430DD10AE00843E6
:1052A00004D000204FF0110B0F9080E7A3EB0B050B
:1052B0006D1E0DE05B4504DD4FF0000205F10105B8
:1052C00004E003DA4FF00002A5F10105002AECD05A
:1052D00000980F99C0E90231C0E9004586E7000057
:1052E000000024400000F03F300000000000F043C8
:1052F0000000E03F30380A2801D20120704700202A
:10530000704700002DE9FF4F95B09B468946064641
:1053100000250FE2252877D100242746F84A0121ED
:10532000059400E0044316F8013F203B01FA03F026
:105330001042F7D130782A2811D06FF02F0330783F
:10534000A0F13002092A16D8059A44F0020402EBB3
:10535000820203EB42021044761C0590EFE759F8F5
:10536000042B0592002A03DA504244F400540590BD
:1053700044F00204761C30782E2816D116F8010F5E
:1053800044F004042A280DD06FF02F023078A0F1E9
:105390003003092B09D807EB870302EB4303C71837
:1053A000761CF3E759F8047B761C30786C280FD014
:1053B00006DC4C2817D068280DD06A2814D104E0E8
:1053C000742810D07A280FD10DE044F400140AE0BC
:1053D00044F4801401E044F440147278824202D113
:1053E00004F58014761C761C307866280BD013DC0C
:1053F000582877D009DC002875D04528F6D04628F3
:10540000F4D047281AD19DE118E0632835D06428EC
:1054100079D0652812D195E1702873D008DC67280F
:10542000F1D069286FD06E280DD06F2806D1B5E075
:1054300073282CD0752875D0782874D05A461799BF
:1054400090476D1C75E1C4F30250022809D003286F
:105450000DD0D9F8001004280DD00D6009F1040911
:1054600067E1D9F80010EA17C1E90052F6E7D9F868
:1054700000100D80F2E70D70F0E719F8041B8DF8AD
:10548000001000208DF80100EA46012003E059F8E1
:1054900004AB4FF0FF3061074FF0000102D40DE084
:1054A00008F101018846B9420FDA8045F8DB1AF8A5
:1054B00008100029F4D108E008F101018846814272
:1054C000FADB1AF808100029F6D105985B46A0EB24
:1054D000080721463846179A00F094FA284400EB52
:1054E000080507E04DE029E10DE01AF8010B5A46E6
:1054F00017999047B8F10108F7D25B462146384624
:10550000179A13E142E00A220092C4F302524FF0CC
:10551000000A022A08D059F804CB032A4FEAEC719A
:105520000AD00DE029E02AE009F1070121F0070285
:10553000F2E802C1914609E00FFA8CFC4FEAEC71E7
:10554000042A03D14FFA8CFC4FEAEC71002907DAE8
:105550000A460021DCF1000C61EB02012D2202E081
:10556000220504D52B228DF80420012203E0E20756
:1055700001D02022F7E7904659E00A2102E01022EC
:105580000DE010214FF0000A00910BE010224FF0C7
:10559000000A44F004040827009203E008224FF0B8
:1055A000000A0092C4F30252022A05D059F804CB33
:1055B0000021032A08D009E009F1070121F00702C0
:1055C000F2E802C1914605E01FFA8CFC042A01D1E1
:1055D0000CF0FF0C4FF00008220728D5702806D0E9
:1055E000009B83F0100353EA0A0305D00EE040222B
:1055F0008DF80420012208E05CEA010206D0302286
:105600008DF804208DF8050002229046009B83F05F
:10561000080353EA0A030AD15CEA010201D16207D6
:1056200005D530228DF804204FF001087F1E582840
:1056300004D034A003900EA802900DE036A0F9E744
:1056400053466046009AFAF731FE84460398825C1E
:105650000298401E029002705CEA0100F0D10298AC
:1056600006A9081A00F1200A600702D524F4803444
:1056700000E00127574502DDA7EB0A0000E000200B
:1056800000EB0A01009005984144401A0590E003A0
:1056900006D45B462146179A059800F0B3F90544F5
:1056A000002706E001A85A46C05D179990476D1C77
:1056B0007F1C4745F6DBE0030CD55B462146179A75
:1056C000059800F09FF9054404E030205A461799E8
:1056D00090476D1C0099481E00900029F5DC08E0F9
:1056E000029802995A460078491C029117999047EE
:1056F0006D1CBAF10001AAF1010AF1DC65E10000BC
:105700000928010030313233343536373839616297
:10571000636465660000000030313233343536375B
:1057200038394142434445460000000000F058F932
:105730000544761C307800287FF4ECAD19B028467B
:10574000BDE8F08F620700D4062709F1070222F0B6
:10575000070CFCE80223E14603F000485FEA080C6E
:1057600002D00FF2702C0DE05FEA045C02D50FF25C
:10577000682C07E05FEAC47C02D00FF2602C01E0E5
:10578000AFF2700C4FF0FF3823F00043CDF850C05B
:1057900065280CD006DC452809D046281DD04728AE
:1057A0003DD13DE0662818D067287ED138E0002141
:1057B000112F01DB112000E0781CCDE9000106A9C2
:1057C0000EA8FFF7E5FCDDE90F010E9A0391002119
:1057D000009207F1010A04914DE04FF0004000975C
:1057E000CDE9011006A90EA8FFF7D2FCDDE90F02F2
:1057F00003920E9B11990022DDF80CA000930492F5
:1058000011B9791C00EB010AB7EB0A0004D4C0F10E
:10581000FF3007F1010A0490AAEB0700019044E071
:10582000012F00DA01270021112F01DD112000E0F6
:105830003846CDE9000106A90EA8FFF7A9FCDDE96D
:105840000F010E9A0391002104910092BA4621079C
:105850000CD40399514500DA8A46BAF1010F05DDEF
:10586000009AAAF10101515C302908D0B84202DA4D
:1058700010F1040F06DA0121CDE9011015E0AAF1BB
:105880000101E9E7002805DC049901440491AAEB31
:10589000000102E0411C514500DD8A460499401A8E
:1058A000401C01904FF000400290200704D4019862
:1058B000504501DBCDF8048000208DF84F000298A0
:1058C0000DF14F07B0F1004F25D02B200E9002981C
:1058D0004FF0020800280CDA404202902D200E9072
:1058E00007E00A210298FAF7CBFC3031029007F862
:1058F000011DB8F10001A8F10108F2DC02980028AE
:10590000EFD1791E0E980870307800F0200040F03A
:10591000450007F8020D12A8C01B00F107081498F3
:10592000007800B1012000EB0A01019801EBE07161
:1059300005984144401A401E0590E00306D45B469A
:105940002146179A059800F05DF8054414980078F0
:1059500018B15A46179990476D1CE00324D55B4651
:105960002146179A059800F04DF805441CE004986C
:10597000002807DBDDE90301884203DD0098405C75
:10598000179901E0179930205A469047049805F17D
:105990000105401C04900198401E019004D12E2066
:1059A0005A46179990476D1CBAF10001AAF1010AF5
:1059B000DDDC05E017F8010B5A46179990476D1C7E
:1059C000B8F10001A8F10108F4DC5B462146179A02
:1059D0000598ABE62D0000002B0000002000000021
:1059E0002DE9F041044600251E461746880404D4DC
:1059F00005E039462020B0476D1C641EF9D52846C5
:105A0000BDE8F0812DE9F041044600251E46904690
:105A1000C80301D5302700E02027880404D505E01D
:105A200041463846B0476D1C641EF9D52846BDE88E
:105A3000F0814A68002A06D00A68531C0B60107077
:105A40004868401E486070470A68531C0B6010701D
:105A5000704770B50D4604998C0099008918AA000A
:105A600010182246FAF7A1FC70BD000010B50548D9
:105A7000D0F8C00020B10349D1F8C000FCF77AFA91
:105A800010BD0000080A002010B50548D0F8B80085
:105A900020B10349D1F8B800FCF76CFA10BD000042
:105AA000080A0020FEB504460D460026002001909D
:105AB0000CB9401EFEBD1448007810B94FF0FF30FD
:105AC000F8E71249D1F8B800FCF75EFA0F490095E3
:105AD00001AB0122086802A900F0CEF806460B4986
